{
  "_format": "hh-sol-artifact-1",
  "contractName": "VotingSystem",
  "sourceName": "contracts/VotingSystem.sol",
  "abi": [
    {
      "inputs": [],
      "stateMutability": "nonpayable",
      "type": "constructor"
    },
    {
      "inputs": [
        {
          "internalType": "address",
          "name": "_candidateAddress",
          "type": "address"
        }
      ],
      "name": "approveCandidate",
      "outputs": [],
      "stateMutability": "nonpayable",
      "type": "function"
    },
    {
      "inputs": [
        {
          "internalType": "uint256",
          "name": "",
          "type": "uint256"
        }
      ],
      "name": "candidateAddresses",
      "outputs": [
        {
          "internalType": "address",
          "name": "",
          "type": "address"
        }
      ],
      "stateMutability": "view",
      "type": "function"
    },
    {
      "inputs": [
        {
          "internalType": "address",
          "name": "",
          "type": "address"
        }
      ],
      "name": "candidates",
      "outputs": [
        {
          "internalType": "string",
          "name": "name",
          "type": "string"
        },
        {
          "internalType": "uint256",
          "name": "id",
          "type": "uint256"
        },
        {
          "internalType": "uint256",
          "name": "voteCount",
          "type": "uint256"
        },
        {
          "internalType": "bool",
          "name": "approved",
          "type": "bool"
        }
      ],
      "stateMutability": "view",
      "type": "function"
    },
    {
      "inputs": [],
      "name": "declareWinner",
      "outputs": [
        {
          "internalType": "uint256",
          "name": "",
          "type": "uint256"
        },
        {
          "internalType": "address",
          "name": "",
          "type": "address"
        }
      ],
      "stateMutability": "view",
      "type": "function"
    },
    {
      "inputs": [],
      "name": "getAllCandidates",
      "outputs": [
        {
          "internalType": "address[]",
          "name": "",
          "type": "address[]"
        }
      ],
      "stateMutability": "view",
      "type": "function"
    },
    {
      "inputs": [
        {
          "internalType": "address",
          "name": "_address",
          "type": "address"
        }
      ],
      "name": "getCandidateByAddress",
      "outputs": [
        {
          "internalType": "string",
          "name": "",
          "type": "string"
        },
        {
          "internalType": "uint256",
          "name": "",
          "type": "uint256"
        },
        {
          "internalType": "uint256",
          "name": "",
          "type": "uint256"
        },
        {
          "internalType": "bool",
          "name": "",
          "type": "bool"
        }
      ],
      "stateMutability": "view",
      "type": "function"
    },
    {
      "inputs": [],
      "name": "pollingOfficer",
      "outputs": [
        {
          "internalType": "address",
          "name": "",
          "type": "address"
        }
      ],
      "stateMutability": "view",
      "type": "function"
    },
    {
      "inputs": [
        {
          "internalType": "string",
          "name": "_name",
          "type": "string"
        }
      ],
      "name": "registerCandidate",
      "outputs": [],
      "stateMutability": "nonpayable",
      "type": "function"
    },
    {
      "inputs": [
        {
          "internalType": "string",
          "name": "_name",
          "type": "string"
        }
      ],
      "name": "registerVoter",
      "outputs": [],
      "stateMutability": "nonpayable",
      "type": "function"
    },
    {
      "inputs": [
        {
          "internalType": "address",
          "name": "_candidateAddress",
          "type": "address"
        }
      ],
      "name": "voteOnCandidate",
      "outputs": [],
      "stateMutability": "nonpayable",
      "type": "function"
    }
  ],
  "bytecode": "0x6080604052348015600f57600080fd5b50600080546001600160a01b03191633179055610d67806100316000396000f3fe608060405234801561001057600080fd5b506004361061009e5760003560e01c80638ab66a90116100665780638ab66a901461011d5780639eb88db614610140578063ad25e82914610153578063d55d73c514610166578063fcc2ac2a1461019157600080fd5b806307be7e91146100a357806314034bd2146100b85780632e6997fe146100e25780636428a486146100f75780636dd2bf4c1461010a575b600080fd5b6100b66100b13660046109c2565b6101a4565b005b6100c06102a9565b604080519283526001600160a01b039091166020830152015b60405180910390f35b6100ea610338565b6040516100d991906109f2565b6100b6610105366004610a54565b61039a565b6100b66101183660046109c2565b6104dc565b61013061012b3660046109c2565b61067b565b6040516100d99493929190610b0d565b6100b661014e366004610a54565b610730565b6101306101613660046109c2565b610858565b610179610174366004610b72565b610998565b6040516001600160a01b0390911681526020016100d9565b600054610179906001600160a01b031681565b6000546001600160a01b031633146102155760405162461bcd60e51b815260206004820152602960248201527f4f6e6c7920706f6c696e67206f6666696365722063616e20617070726f76652060448201526863616e64696461746560b81b60648201526084015b60405180910390fd5b6001600160a01b038116600090815260016020819052604082200154900361027f5760405162461bcd60e51b815260206004820152601760248201527f43616e64696461746520646964206e6f74206578697374000000000000000000604482015260640161020c565b6001600160a01b03166000908152600160208190526040909120600301805460ff19169091179055565b60008060008060005b60025481101561032f576000600282815481106102d1576102d1610b8b565b60009182526020808320909101546001600160a01b03168083526001909152604090912060020154909150831015610326576001600160a01b0381166000908152600160205260409020600201549093509150825b506001016102b2565b50939092509050565b6060600480548060200260200160405190810160405280929190818152602001828054801561039057602002820191906000526020600020905b81546001600160a01b03168152600190910190602001808311610372575b5050505050905090565b33600090815260036020526040902060010154156103fa5760405162461bcd60e51b815260206004820152601860248201527f566f74657220616c726561647920726567697374657265640000000000000000604482015260640161020c565b6040805160808101909152818152600454602082019061041b906001610bb7565b81526000602080830182905260409283018290523382526003905220815181906104459082610c59565b5060208201516001808301919091556040830151600290920180546060909401516001600160a01b031661010002610100600160a81b0319931515939093166001600160a81b031990941693909317919091179091556004805491820181556000527f8a35acfbc15ff81a39ae7d344fd709f28e8600b4aa8c65c6b64bfe7fe36bd19b0180546001600160a01b0319163317905550565b336000908152600360205260409020600101541580159061051057503360009081526003602052604090206002015460ff16155b61056e5760405162461bcd60e51b815260206004820152602960248201527f566f746572204e6f742072656769737465726564206f7220796f7520616c726560448201526818591e481d9bdd195960ba1b606482015260840161020c565b6001600160a01b03811660009081526001602081905260409091200154158015906105ba57506001600160a01b03811660009081526001602081905260409091206003015460ff161515145b6106145760405162461bcd60e51b815260206004820152602560248201527f63616e646964617465206e6f742065786973746564206f72206e6f74206170706044820152641c9bdd995960da1b606482015260840161020c565b6001600160a01b038116600090815260016020526040812060020180549161063b83610d18565b909155505033600090815260036020526040902060020180546001600160a01b0392909216610100026001600160a81b0319909216919091176001179055565b60016020526000908152604090208054819061069690610bd0565b80601f01602080910402602001604051908101604052809291908181526020018280546106c290610bd0565b801561070f5780601f106106e45761010080835404028352916020019161070f565b820191906000526020600020905b8154815290600101906020018083116106f257829003601f168201915b50505050600183015460028401546003909401549293909290915060ff1684565b3360009081526001602081905260409091200154156107915760405162461bcd60e51b815260206004820152601c60248201527f43616e64696461746520616c7265616479207265676973746572656400000000604482015260640161020c565b604080516080810190915281815260025460208201906107b2906001610bb7565b81526000602080830182905260409283018290523382526001905220815181906107dc9082610c59565b50602082015160018083019190915560408301516002808401919091556060909301516003909201805492151560ff1990931692909217909155815490810182556000919091527f405787fa12a823e0f2b7631cc41b3ba8828b3321ca811111fa75cd3aa3bb5ace0180546001600160a01b0319163317905550565b6001600160a01b038116600090815260016020819052604082200154606091908190819081036108ca5760405162461bcd60e51b815260206004820152601860248201527f43616e64696461746520646f6573206e6f742065786973740000000000000000604482015260640161020c565b6001600160a01b0385166000908152600160208190526040909120908101546002820154600383015483548493929160ff1690849061090890610bd0565b80601f016020809104026020016040519081016040528092919081815260200182805461093490610bd0565b80156109815780601f1061095657610100808354040283529160200191610981565b820191906000526020600020905b81548152906001019060200180831161096457829003601f168201915b505050505093509450945094509450509193509193565b600281815481106109a857600080fd5b6000918252602090912001546001600160a01b0316905081565b6000602082840312156109d457600080fd5b81356001600160a01b03811681146109eb57600080fd5b9392505050565b602080825282518282018190526000918401906040840190835b81811015610a335783516001600160a01b0316835260209384019390920191600101610a0c565b509095945050505050565b634e487b7160e01b600052604160045260246000fd5b600060208284031215610a6657600080fd5b813567ffffffffffffffff811115610a7d57600080fd5b8201601f81018413610a8e57600080fd5b803567ffffffffffffffff811115610aa857610aa8610a3e565b604051601f8201601f19908116603f0116810167ffffffffffffffff81118282101715610ad757610ad7610a3e565b604052818152828201602001861015610aef57600080fd5b81602084016020830137600091810160200191909152949350505050565b608081526000855180608084015260005b81811015610b3b57602081890181015160a0868401015201610b1e565b50600060a0828501015260a0601f19601f830116840101915050846020830152836040830152821515606083015295945050505050565b600060208284031215610b8457600080fd5b5035919050565b634e487b7160e01b600052603260045260246000fd5b634e487b7160e01b600052601160045260246000fd5b80820180821115610bca57610bca610ba1565b92915050565b600181811c90821680610be457607f821691505b602082108103610c0457634e487b7160e01b600052602260045260246000fd5b50919050565b601f821115610c5457806000526020600020601f840160051c81016020851015610c315750805b601f840160051c820191505b81811015610c515760008155600101610c3d565b50505b505050565b815167ffffffffffffffff811115610c7357610c73610a3e565b610c8781610c818454610bd0565b84610c0a565b6020601f821160018114610cbb5760008315610ca35750848201515b600019600385901b1c1916600184901b178455610c51565b600084815260208120601f198516915b82811015610ceb5787850151825560209485019460019092019101610ccb565b5084821015610d095786840151600019600387901b60f8161c191681555b50505050600190811b01905550565b600060018201610d2a57610d2a610ba1565b506001019056fea2646970667358221220d4ad63944b4958b3072510f18b12b62853e4e9c7a8fb4f9d5f783b5454957d9764736f6c634300081a0033",
  "linkReferences": {},
  "deployedLinkReferences": {}
}